:100000000AC019C02AC017C016C015C014C013C03A
:1000100012C011C010C011271FBFCFE5D0E0DEBF56
:10002000CDBF20E0A0E4B0E001C01D93A534B2072D
:10003000E1F79BD0A0C0E4CF129A47EA51E64150C5
:100040005040E9F700C00000129847EA51E64150DD
:100050005040E9F700C0000008951F930F930FB7B9
:100060000F9310E04F935F936F937F938F939F93C2
:10007000AF93BF93EF93FF9344A141130BC0009B39
:1000800065C019BD18BD4DB541604DBD41E044A9E5
:10009000D3DF5CC0413009F059C01DBD6FB7F89483
:1000A00048B559B56FBF642F752F6659710B77FF2F
:1000B00003C071956195710B64367107A4F4BCDFC0
:1000C00043A1E42FE770F0E0E05CFF4F542F56951A
:1000D0005695569561E070E001C0660F5A95EAF7B3
:1000E0005081652B1FC0642F752F685C710B77FFE3
:1000F00003C071956195710B64367107BCF443A11F
:10010000E42FE770F0E0E05CFF4F542F56955695D2
:10011000569561E070E001C0660F5A95EAF7609568
:100120005081652360834F5F43A90BC04C525140FF
:1001300057FF03C051954195510B443651070CF4BC
:1001400013A943A1483109F413A914A9FF91EF9110
:10015000BF91AF919F918F917F916F915F914F91DF
:100160000F910FBF0F911F91189541E040BB42BB0B
:0A01700078940A9AFFCFF894FFCFAD
:00000001FF
