:100000000AC019C01CC017C016C015C014C013C048
:1000100012C011C010C011271FBFCFE5D0E0DEBF56
:10002000CDBF20E0A0E4B0E001C01D93A534B2072D
:10003000E1F7A4D0A9C0E4CF129A129808951F93B3
:100040000F930FB70F9310E04F935F936F937F93CE
:100050008F939F93AF93BF93CF93DF93EF93FF93D0
:1000600044A141130BC0009B78C019BD18BD4DB50C
:1000700041604DBD41E044A9DFDF6FC0413009F070
:100080006CC01DBD4FB7F894C8B5D9B54FBFD4DF0C
:100090004C2F5D2F4659510B57FF03C05195419589
:1000A000510B44315107CCF4129A43E04A95F1F7D1
:1000B0000000129843A1E42FE770F0E0E05CFF4FEE
:1000C000542F56955695569561E070E001C0660F25
:1000D0005A95EAF75081652B25C04C2F5D2F485C5F
:1000E000510B57FF03C051954195510B44315107B6
:1000F000ECF4129A46E04A95F1F700C0129843A139
:10010000E42FE770F0E0E05CFF4F542F56955695D2
:10011000569561E070E001C0660F5A95EAF7609568
:100120005081652360834F5F43A912C04C2F5D2F20
:100130004C52514057FF03C051954195510B4431EA
:10014000510734F4129A4AE04A95F1F7129813A92C
:1001500043A1483109F413A914A9FF91EF91DF914C
:10016000CF91BF91AF919F918F917F916F915F914F
:100170004F910F910FBF0F911F91189541E040BB18
:0C01800042BB78940A9AFFCFF894FFCF9E
:00000001FF
