:100000000AC019C01CC017C016C015C014C013C048
:1000100012C011C010C011271FBFCFE5D0E0DEBF56
:10002000CDBF20E0A0E4B0E001C01D93A534B2072D
:10003000E1F79AD0D0C0E4CF129A129808951F9396
:100040000F930FB70F9310E04F935F936F937F93CE
:100050008F939F93AF93BF93CF93DF93EF93FF93D0
:1000600044A141130BC0009B6EC019BD18BD4DB516
:1000700041604DBD41E044A9DFDF65C0413009F07A
:1000800062C01DBD4FB7F894C8B5D9B54FBFD4DF16
:100090004C2F5D2F4659510B57FF03C05195419589
:1000A000510B443151079CF440A1E42FE695E695AD
:1000B000E695F0E0EF5BFF4F542F577061E070E082
:1000C00001C0660F5A95EAF75081652B1FC04C2F6F
:1000D0005D2F485C510B57FF03C051954195510B63
:1000E00044315107C4F440A1E42FE695E695E69526
:1000F000F0E0EF5BFF4F542F577061E070E001C0FC
:10010000660F5A95EAF760955081652360834F5FCB
:1001100040A914A914C04C2F5D2F4C52514057FFD9
:1001200003C051954195510B4431510744F4129A43
:100130004AE04A95F1F7129810A943E044A940A17A
:10014000483109F410A9FF91EF91DF91CF91BF9150
:10015000AF919F918F917F916F915F914F910F918F
:100160000FBF0F911F91189541E040BB42BB78949F
:100170000A9A099A119A119884A18330D9F744E612
:100180004A95F1F7089AE1E4F0E060E070E0408120
:1001900050E0062F02C0559547950A95E2F7109A50
:1001A00040FF04C049E14A95F1F704C049E24A958D
:1001B000F1F700C0109844E14A95F1F76F5F7F4F67
:1001C0006830710721F78150EF5FFF4F8113DDCF5A
:0A01D000089814A9CFCFF894FFCFD0
:00000001FF
