:100000000AC019C019C017C016C015C014C013C04B
:1000100012C011C010C011271FBFCFE5D0E0DEBF56
:10002000CDBF20E0A0E4B0E001C01D93A534B2072D
:10003000E1F773D078C0E4CF1F930F930FB70F93FE
:1000400010E04F935F936F937F938F939F93EF9302
:10005000FF9344A1411308C019BD18BD4DB54160BF
:100060004DBD41E044A94CC0413009F049C01DBD1F
:100070004FB7F89468B579B54FBF862F972F86593B
:10008000910B97FF03C091958195910B43A184310A
:10009000910794F4E42FE770F0E0E05CFF4F542FF9
:1000A00056955695569561E070E001C0660F5A95D9
:1000B000EAF75081652B1CC0685C710B77FF03C0A9
:1000C00071956195710B64317107ACF4E42FE770A1
:1000D000F0E0E05CFF4F542F56955695569561E041
:1000E00070E001C0660F5A95EAF76095508165236C
:1000F00060834F5F43A943A1483109F413A914A9B0
:10010000FF91EF919F918F917F916F915F914F91AF
:100110000F910FBF0F911F91189541E040BB42BB5B
:0A0120007894099AFFCFF894FFCFFE
:00000001FF
